{
  "contractName": "CampaignFactory",
  "abi": [
    {
      "inputs": [],
      "stateMutability": "nonpayable",
      "type": "constructor"
    },
    {
      "inputs": [],
      "name": "contractDeployer",
      "outputs": [
        {
          "internalType": "address",
          "name": "",
          "type": "address"
        }
      ],
      "stateMutability": "view",
      "type": "function",
      "constant": true
    },
    {
      "inputs": [
        {
          "internalType": "uint256",
          "name": "",
          "type": "uint256"
        }
      ],
      "name": "deployedCampaigns",
      "outputs": [
        {
          "internalType": "address",
          "name": "",
          "type": "address"
        }
      ],
      "stateMutability": "view",
      "type": "function",
      "constant": true
    },
    {
      "inputs": [
        {
          "internalType": "string",
          "name": "name",
          "type": "string"
        },
        {
          "internalType": "string",
          "name": "description",
          "type": "string"
        },
        {
          "internalType": "string",
          "name": "url",
          "type": "string"
        },
        {
          "internalType": "uint256",
          "name": "target",
          "type": "uint256"
        },
        {
          "internalType": "uint256",
          "name": "minimum",
          "type": "uint256"
        }
      ],
      "name": "createCampaign",
      "outputs": [],
      "stateMutability": "nonpayable",
      "type": "function"
    },
    {
      "inputs": [],
      "name": "getDeployedCampaigns",
      "outputs": [
        {
          "internalType": "address[]",
          "name": "",
          "type": "address[]"
        }
      ],
      "stateMutability": "view",
      "type": "function",
      "constant": true
    }
  ],
  "bytecode": "0x608060405234801561001057600080fd5b5033600160006101000a81548173ffffffffffffffffffffffffffffffffffffffff021916908373ffffffffffffffffffffffffffffffffffffffff160217905550612e60806100616000396000f3fe60806040523480156200001157600080fd5b5060043610620000525760003560e01c8063339d50a514620000575780634acb9d4f146200008d578063980f2e6614620000af578063a24bfc6e14620000cf575b600080fd5b6200007560048036038101906200006f919062000389565b620000f1565b60405162000084919062000400565b60405180910390f35b6200009762000131565b604051620000a69190620004eb565b60405180910390f35b620000cd6004803603810190620000c7919062000671565b620001c1565b005b620000d962000306565b604051620000e8919062000400565b60405180910390f35b600081815481106200010257600080fd5b906000526020600020016000915054906101000a900473ffffffffffffffffffffffffffffffffffffffff1681565b60606000805480602002602001604051908101604052809291908181526020018280548015620001b757602002820191906000526020600020905b8160009054906101000a900473ffffffffffffffffffffffffffffffffffffffff1673ffffffffffffffffffffffffffffffffffffffff16815260200190600101908083116200016c575b5050505050905090565b600160009054906101000a900473ffffffffffffffffffffffffffffffffffffffff1673ffffffffffffffffffffffffffffffffffffffff163373ffffffffffffffffffffffffffffffffffffffff161462000254576040517f08c379a00000000000000000000000000000000000000000000000000000000081526004016200024b90620007dd565b60405180910390fd5b60008585858585336040516200026a906200032c565b6200027b9695949392919062000888565b604051809103906000f08015801562000298573d6000803e3d6000fd5b5090506000819080600181540180825580915050600190039060005260206000200160009091909190916101000a81548173ffffffffffffffffffffffffffffffffffffffff021916908373ffffffffffffffffffffffffffffffffffffffff160217905550505050505050565b600160009054906101000a900473ffffffffffffffffffffffffffffffffffffffff1681565b612520806200090b83390190565b6000604051905090565b600080fd5b600080fd5b6000819050919050565b62000363816200034e565b81146200036f57600080fd5b50565b600081359050620003838162000358565b92915050565b600060208284031215620003a257620003a162000344565b5b6000620003b28482850162000372565b91505092915050565b600073ffffffffffffffffffffffffffffffffffffffff82169050919050565b6000620003e882620003bb565b9050919050565b620003fa81620003db565b82525050565b6000602082019050620004176000830184620003ef565b92915050565b600081519050919050565b600082825260208201905092915050565b6000819050602082019050919050565b6200045481620003db565b82525050565b600062000468838362000449565b60208301905092915050565b6000602082019050919050565b60006200048e826200041d565b6200049a818562000428565b9350620004a78362000439565b8060005b83811015620004de578151620004c288826200045a565b9750620004cf8362000474565b925050600181019050620004ab565b5085935050505092915050565b6000602082019050818103600083015262000507818462000481565b905092915050565b600080fd5b600080fd5b6000601f19601f8301169050919050565b7f4e487b7100000000000000000000000000000000000000000000000000000000600052604160045260246000fd5b620005648262000519565b810181811067ffffffffffffffff821117156200058657620005856200052a565b5b80604052505050565b60006200059b6200033a565b9050620005a9828262000559565b919050565b600067ffffffffffffffff821115620005cc57620005cb6200052a565b5b620005d78262000519565b9050602081019050919050565b82818337600083830152505050565b60006200060a6200060484620005ae565b6200058f565b90508281526020810184848401111562000629576200062862000514565b5b62000636848285620005e4565b509392505050565b600082601f8301126200065657620006556200050f565b5b813562000668848260208601620005f3565b91505092915050565b600080600080600060a0868803121562000690576200068f62000344565b5b600086013567ffffffffffffffff811115620006b157620006b062000349565b5b620006bf888289016200063e565b955050602086013567ffffffffffffffff811115620006e357620006e262000349565b5b620006f1888289016200063e565b945050604086013567ffffffffffffffff81111562000715576200071462000349565b5b62000723888289016200063e565b9350506060620007368882890162000372565b9250506080620007498882890162000372565b9150509295509295909350565b600082825260208201905092915050565b7f4f6e6c792074686520636f6e7472616374206465706c6f7965722063616e206360008201527f72656174652063616d706169676e730000000000000000000000000000000000602082015250565b6000620007c5602f8362000756565b9150620007d28262000767565b604082019050919050565b60006020820190508181036000830152620007f881620007b6565b9050919050565b600081519050919050565b60005b838110156200082a5780820151818401526020810190506200080d565b60008484015250505050565b60006200084382620007ff565b6200084f818562000756565b9350620008618185602086016200080a565b6200086c8162000519565b840191505092915050565b62000882816200034e565b82525050565b600060c0820190508181036000830152620008a4818962000836565b90508181036020830152620008ba818862000836565b90508181036040830152620008d0818762000836565b9050620008e1606083018662000877565b620008f0608083018562000877565b620008ff60a0830184620003ef565b97965050505050505056fe60806040523480156200001157600080fd5b5060405162002520380380620025208339818101604052810190620000379190620002fb565b856006908162000048919062000635565b5084600790816200005a919062000635565b5083600890816200006c919062000635565b508260098190555080600260006101000a81548173ffffffffffffffffffffffffffffffffffffffff021916908373ffffffffffffffffffffffffffffffffffffffff160217905550816003819055505050505050506200071c565b6000604051905090565b600080fd5b600080fd5b600080fd5b600080fd5b6000601f19601f8301169050919050565b7f4e487b7100000000000000000000000000000000000000000000000000000000600052604160045260246000fd5b6200013182620000e6565b810181811067ffffffffffffffff82111715620001535762000152620000f7565b5b80604052505050565b600062000168620000c8565b905062000176828262000126565b919050565b600067ffffffffffffffff821115620001995762000198620000f7565b5b620001a482620000e6565b9050602081019050919050565b60005b83811015620001d1578082015181840152602081019050620001b4565b60008484015250505050565b6000620001f4620001ee846200017b565b6200015c565b905082815260208101848484011115620002135762000212620000e1565b5b62000220848285620001b1565b509392505050565b600082601f83011262000240576200023f620000dc565b5b815162000252848260208601620001dd565b91505092915050565b6000819050919050565b62000270816200025b565b81146200027c57600080fd5b50565b600081519050620002908162000265565b92915050565b600073ffffffffffffffffffffffffffffffffffffffff82169050919050565b6000620002c38262000296565b9050919050565b620002d581620002b6565b8114620002e157600080fd5b50565b600081519050620002f581620002ca565b92915050565b60008060008060008060c087890312156200031b576200031a620000d2565b5b600087015167ffffffffffffffff8111156200033c576200033b620000d7565b5b6200034a89828a0162000228565b965050602087015167ffffffffffffffff8111156200036e576200036d620000d7565b5b6200037c89828a0162000228565b955050604087015167ffffffffffffffff811115620003a0576200039f620000d7565b5b620003ae89828a0162000228565b9450506060620003c189828a016200027f565b9350506080620003d489828a016200027f565b92505060a0620003e789828a01620002e4565b9150509295509295509295565b600081519050919050565b7f4e487b7100000000000000000000000000000000000000000000000000000000600052602260045260246000fd5b600060028204905060018216806200044757607f821691505b6020821081036200045d576200045c620003ff565b5b50919050565b60008190508160005260206000209050919050565b60006020601f8301049050919050565b600082821b905092915050565b600060088302620004c77fffffffffffffffffffffffffffffffffffffffffffffffffffffffffffffffff8262000488565b620004d3868362000488565b95508019841693508086168417925050509392505050565b6000819050919050565b600062000516620005106200050a846200025b565b620004eb565b6200025b565b9050919050565b6000819050919050565b6200053283620004f5565b6200054a62000541826200051d565b84845462000495565b825550505050565b600090565b6200056162000552565b6200056e81848462000527565b505050565b5b8181101562000596576200058a60008262000557565b60018101905062000574565b5050565b601f821115620005e557620005af8162000463565b620005ba8462000478565b81016020851015620005ca578190505b620005e2620005d98562000478565b83018262000573565b50505b505050565b600082821c905092915050565b60006200060a60001984600802620005ea565b1980831691505092915050565b6000620006258383620005f7565b9150826002028217905092915050565b6200064082620003f4565b67ffffffffffffffff8111156200065c576200065b620000f7565b5b6200066882546200042e565b620006758282856200059a565b600060209050601f831160018114620006ad576000841562000698578287015190505b620006a4858262000617565b86555062000714565b601f198416620006bd8662000463565b60005b82811015620006e757848901518255600182019150602085019450602081019050620006c0565b8683101562000707578489015162000703601f891682620005f7565b8355505b6001600288020188555050505b505050505050565b611df4806200072c6000396000f3fe6080604052600436106100f35760003560e01c80637284e4161161008a578063c58343ef11610059578063c58343ef14610312578063d4b8399214610353578063d7bb99ba1461037e578063d7d1bbdb14610388576100f3565b80637284e416146102685780638a9cfd5514610293578063937e09b1146102bc578063c2b6b58c146102e7576100f3565b80634051ddac116100c65780634051ddac146101b4578063481c6a75146101e75780635600f04f146102125780636e7e3b2b1461023d576100f3565b806303441006146100f857806306fdde03146101215780630a1443911461014c5780633410452a14610189575b600080fd5b34801561010457600080fd5b5061011f600480360381019061011a919061107e565b6103b1565b005b34801561012d57600080fd5b506101366105ce565b604051610143919061113b565b60405180910390f35b34801561015857600080fd5b50610173600480360381019061016e91906111bb565b61065c565b6040516101809190611203565b60405180910390f35b34801561019557600080fd5b5061019e61067c565b6040516101ab919061122d565b60405180910390f35b3480156101c057600080fd5b506101c9610685565b6040516101de99989796959493929190611257565b60405180910390f35b3480156101f357600080fd5b506101fc61088a565b60405161020991906112f9565b60405180910390f35b34801561021e57600080fd5b506102276108b0565b604051610234919061113b565b60405180910390f35b34801561024957600080fd5b5061025261093e565b60405161025f919061122d565b60405180910390f35b34801561027457600080fd5b5061027d610944565b60405161028a919061113b565b60405180910390f35b34801561029f57600080fd5b506102ba60048036038101906102b59190611449565b6109d2565b005b3480156102c857600080fd5b506102d1610ba6565b6040516102de919061122d565b60405180910390f35b3480156102f357600080fd5b506102fc610bac565b6040516103099190611203565b60405180910390f35b34801561031e57600080fd5b506103396004803603810190610334919061107e565b610bbf565b60405161034a9594939291906114d9565b60405180910390f35b34801561035f57600080fd5b50610368610d07565b604051610375919061122d565b60405180910390f35b610386610d0d565b005b34801561039457600080fd5b506103af60048036038101906103aa919061107e565b610e8a565b005b600260009054906101000a900473ffffffffffffffffffffffffffffffffffffffff1673ffffffffffffffffffffffffffffffffffffffff163373ffffffffffffffffffffffffffffffffffffffff1614610441576040517f08c379a0000000000000000000000000000000000000000000000000000000008152600401610438906115a5565b60405180910390fd5b600060016000838152602001908152602001600020905060026005546104679190611623565b8160030154116104ac576040517f08c379a00000000000000000000000000000000000000000000000000000000081526004016104a3906116c6565b60405180910390fd5b8060020160149054906101000a900460ff16156104fe576040517f08c379a00000000000000000000000000000000000000000000000000000000081526004016104f590611758565b60405180910390fd5b8060020160009054906101000a900473ffffffffffffffffffffffffffffffffffffffff1673ffffffffffffffffffffffffffffffffffffffff166108fc82600101549081150290604051600060405180830381858888f1935050505015801561056c573d6000803e3d6000fd5b5060018160020160146101000a81548160ff0219169083151502179055508060020160149054906101000a900460ff1680156105a9575060095447105b156105ca576000600a60006101000a81548160ff0219169083151502179055505b5050565b600680546105db906117a7565b80601f0160208091040260200160405190810160405280929190818152602001828054610607906117a7565b80156106545780601f1061062957610100808354040283529160200191610654565b820191906000526020600020905b81548152906001019060200180831161063757829003601f168201915b505050505081565b60046020528060005260406000206000915054906101000a900460ff1681565b60008054905090565b606080606060008060008060008060066007600860095460035447600054600554600260009054906101000a900473ffffffffffffffffffffffffffffffffffffffff168880546106d5906117a7565b80601f0160208091040260200160405190810160405280929190818152602001828054610701906117a7565b801561074e5780601f106107235761010080835404028352916020019161074e565b820191906000526020600020905b81548152906001019060200180831161073157829003601f168201915b50505050509850878054610761906117a7565b80601f016020809104026020016040519081016040528092919081815260200182805461078d906117a7565b80156107da5780601f106107af576101008083540402835291602001916107da565b820191906000526020600020905b8154815290600101906020018083116107bd57829003601f168201915b505050505097508680546107ed906117a7565b80601f0160208091040260200160405190810160405280929190818152602001828054610819906117a7565b80156108665780601f1061083b57610100808354040283529160200191610866565b820191906000526020600020905b81548152906001019060200180831161084957829003601f168201915b50505050509650985098509850985098509850985098509850909192939495969798565b600260009054906101000a900473ffffffffffffffffffffffffffffffffffffffff1681565b600880546108bd906117a7565b80601f01602080910402602001604051908101604052809291908181526020018280546108e9906117a7565b80156109365780601f1061090b57610100808354040283529160200191610936565b820191906000526020600020905b81548152906001019060200180831161091957829003601f168201915b505050505081565b60055481565b60078054610951906117a7565b80601f016020809104026020016040519081016040528092919081815260200182805461097d906117a7565b80156109ca5780601f1061099f576101008083540402835291602001916109ca565b820191906000526020600020905b8154815290600101906020018083116109ad57829003601f168201915b505050505081565b600260009054906101000a900473ffffffffffffffffffffffffffffffffffffffff1673ffffffffffffffffffffffffffffffffffffffff163373ffffffffffffffffffffffffffffffffffffffff1614610a62576040517f08c379a0000000000000000000000000000000000000000000000000000000008152600401610a59906115a5565b60405180910390fd5b600460008273ffffffffffffffffffffffffffffffffffffffff1673ffffffffffffffffffffffffffffffffffffffff16815260200190815260200160002060009054906101000a900460ff1615610aef576040517f08c379a0000000000000000000000000000000000000000000000000000000008152600401610ae69061184a565b60405180910390fd5b600060016000806000815480929190610b079061186a565b919050558152602001908152602001600020905083816000019081610b2c9190611a5e565b50828160010181905550818160020160006101000a81548173ffffffffffffffffffffffffffffffffffffffff021916908373ffffffffffffffffffffffffffffffffffffffff16021790555060008160020160146101000a81548160ff0219169083151502179055506000816003018190555050505050565b60035481565b600a60009054906101000a900460ff1681565b60606000806000806000548610610c0b576040517f08c379a0000000000000000000000000000000000000000000000000000000008152600401610c0290611b7c565b60405180910390fd5b60006001600088815260200190815260200160002090508060000181600101548260020160009054906101000a900473ffffffffffffffffffffffffffffffffffffffff168360020160149054906101000a900460ff168460030154848054610c73906117a7565b80601f0160208091040260200160405190810160405280929190818152602001828054610c9f906117a7565b8015610cec5780601f10610cc157610100808354040283529160200191610cec565b820191906000526020600020905b815481529060010190602001808311610ccf57829003601f168201915b50505050509450955095509550955095505091939590929450565b60095481565b6003543411610d51576040517f08c379a0000000000000000000000000000000000000000000000000000000008152600401610d4890611c0e565b60405180910390fd5b600a60009054906101000a900460ff1615610da1576040517f08c379a0000000000000000000000000000000000000000000000000000000008152600401610d9890611c7a565b60405180910390fd5b600460003373ffffffffffffffffffffffffffffffffffffffff1673ffffffffffffffffffffffffffffffffffffffff16815260200190815260200160002060009054906101000a900460ff16610e635760056000815480929190610e059061186a565b91905055506001600460003373ffffffffffffffffffffffffffffffffffffffff1673ffffffffffffffffffffffffffffffffffffffff16815260200190815260200160002060006101000a81548160ff0219169083151502179055505b6009544710610e88576001600a60006101000a81548160ff0219169083151502179055505b565b600460003373ffffffffffffffffffffffffffffffffffffffff1673ffffffffffffffffffffffffffffffffffffffff16815260200190815260200160002060009054906101000a900460ff16610f16576040517f08c379a0000000000000000000000000000000000000000000000000000000008152600401610f0d90611d0c565b60405180910390fd5b60006001600083815260200190815260200160002090508060040160003373ffffffffffffffffffffffffffffffffffffffff1673ffffffffffffffffffffffffffffffffffffffff16815260200190815260200160002060009054906101000a900460ff1615610fbc576040517f08c379a0000000000000000000000000000000000000000000000000000000008152600401610fb390611d9e565b60405180910390fd5b60018160040160003373ffffffffffffffffffffffffffffffffffffffff1673ffffffffffffffffffffffffffffffffffffffff16815260200190815260200160002060006101000a81548160ff02191690831515021790555080600301600081548092919061102b9061186a565b91905055505050565b6000604051905090565b600080fd5b600080fd5b6000819050919050565b61105b81611048565b811461106657600080fd5b50565b60008135905061107881611052565b92915050565b6000602082840312156110945761109361103e565b5b60006110a284828501611069565b91505092915050565b600081519050919050565b600082825260208201905092915050565b60005b838110156110e55780820151818401526020810190506110ca565b60008484015250505050565b6000601f19601f8301169050919050565b600061110d826110ab565b61111781856110b6565b93506111278185602086016110c7565b611130816110f1565b840191505092915050565b600060208201905081810360008301526111558184611102565b905092915050565b600073ffffffffffffffffffffffffffffffffffffffff82169050919050565b60006111888261115d565b9050919050565b6111988161117d565b81146111a357600080fd5b50565b6000813590506111b58161118f565b92915050565b6000602082840312156111d1576111d061103e565b5b60006111df848285016111a6565b91505092915050565b60008115159050919050565b6111fd816111e8565b82525050565b600060208201905061121860008301846111f4565b92915050565b61122781611048565b82525050565b6000602082019050611242600083018461121e565b92915050565b6112518161117d565b82525050565b6000610120820190508181036000830152611272818c611102565b90508181036020830152611286818b611102565b9050818103604083015261129a818a611102565b90506112a9606083018961121e565b6112b6608083018861121e565b6112c360a083018761121e565b6112d060c083018661121e565b6112dd60e083018561121e565b6112eb610100830184611248565b9a9950505050505050505050565b600060208201905061130e6000830184611248565b92915050565b600080fd5b600080fd5b7f4e487b7100000000000000000000000000000000000000000000000000000000600052604160045260246000fd5b611356826110f1565b810181811067ffffffffffffffff821117156113755761137461131e565b5b80604052505050565b6000611388611034565b9050611394828261134d565b919050565b600067ffffffffffffffff8211156113b4576113b361131e565b5b6113bd826110f1565b9050602081019050919050565b82818337600083830152505050565b60006113ec6113e784611399565b61137e565b90508281526020810184848401111561140857611407611319565b5b6114138482856113ca565b509392505050565b600082601f8301126114305761142f611314565b5b81356114408482602086016113d9565b91505092915050565b6000806000606084860312156114625761146161103e565b5b600084013567ffffffffffffffff8111156114805761147f611043565b5b61148c8682870161141b565b935050602061149d86828701611069565b92505060406114ae868287016111a6565b9150509250925092565b60006114c38261115d565b9050919050565b6114d3816114b8565b82525050565b600060a08201905081810360008301526114f38188611102565b9050611502602083018761121e565b61150f60408301866114ca565b61151c60608301856111f4565b611529608083018461121e565b9695505050505050565b7f4f6e6c7920746865206d616e616765722063616e2063616c6c2074686973206660008201527f756e6374696f6e2e000000000000000000000000000000000000000000000000602082015250565b600061158f6028836110b6565b915061159a82611533565b604082019050919050565b600060208201905081810360008301526115be81611582565b9050919050565b7f4e487b7100000000000000000000000000000000000000000000000000000000600052601260045260246000fd5b7f4e487b7100000000000000000000000000000000000000000000000000000000600052601160045260246000fd5b600061162e82611048565b915061163983611048565b925082611649576116486115c5565b5b828204905092915050565b7f4e6f7420656e6f75676820617070726f76616c7320746f2066696e616c697a6560008201527f20726571756573742e0000000000000000000000000000000000000000000000602082015250565b60006116b06029836110b6565b91506116bb82611654565b604082019050919050565b600060208201905081810360008301526116df816116a3565b9050919050565b7f526571756573742068617320616c7265616479206265656e20636f6d706c657460008201527f65642e0000000000000000000000000000000000000000000000000000000000602082015250565b60006117426023836110b6565b915061174d826116e6565b604082019050919050565b6000602082019050818103600083015261177181611735565b9050919050565b7f4e487b7100000000000000000000000000000000000000000000000000000000600052602260045260246000fd5b600060028204905060018216806117bf57607f821691505b6020821081036117d2576117d1611778565b5b50919050565b7f526563697069656e742063616e6e6f74206265206120636f6e7472696275746f60008201527f7220746f207468652063616d706169676e2e0000000000000000000000000000602082015250565b60006118346032836110b6565b915061183f826117d8565b604082019050919050565b6000602082019050818103600083015261186381611827565b9050919050565b600061187582611048565b91507fffffffffffffffffffffffffffffffffffffffffffffffffffffffffffffffff82036118a7576118a66115f4565b5b600182019050919050565b60008190508160005260206000209050919050565b60006020601f8301049050919050565b600082821b905092915050565b6000600883026119147fffffffffffffffffffffffffffffffffffffffffffffffffffffffffffffffff826118d7565b61191e86836118d7565b95508019841693508086168417925050509392505050565b6000819050919050565b600061195b61195661195184611048565b611936565b611048565b9050919050565b6000819050919050565b61197583611940565b61198961198182611962565b8484546118e4565b825550505050565b600090565b61199e611991565b6119a981848461196c565b505050565b5b818110156119cd576119c2600082611996565b6001810190506119af565b5050565b601f821115611a12576119e3816118b2565b6119ec846118c7565b810160208510156119fb578190505b611a0f611a07856118c7565b8301826119ae565b50505b505050565b600082821c905092915050565b6000611a3560001984600802611a17565b1980831691505092915050565b6000611a4e8383611a24565b9150826002028217905092915050565b611a67826110ab565b67ffffffffffffffff811115611a8057611a7f61131e565b5b611a8a82546117a7565b611a958282856119d1565b600060209050601f831160018114611ac85760008415611ab6578287015190505b611ac08582611a42565b865550611b28565b601f198416611ad6866118b2565b60005b82811015611afe57848901518255600182019150602085019450602081019050611ad9565b86831015611b1b5784890151611b17601f891682611a24565b8355505b6001600288020188555050505b505050505050565b7f496e646578206f7574206f662072616e67652e00000000000000000000000000600082015250565b6000611b666013836110b6565b9150611b7182611b30565b602082019050919050565b60006020820190508181036000830152611b9581611b59565b9050919050565b7f416d6f756e742073656e742069732062656c6f7720746865206d696e696d756d60008201527f20636f6e747269627574696f6e2072657175697265642e000000000000000000602082015250565b6000611bf86037836110b6565b9150611c0382611b9c565b604082019050919050565b60006020820190508181036000830152611c2781611beb565b9050919050565b7f436f6e747269627574696f6e20697320636c6f7365642e000000000000000000600082015250565b6000611c646017836110b6565b9150611c6f82611c2e565b602082019050919050565b60006020820190508181036000830152611c9381611c57565b9050919050565b7f4f6e6c7920636f6e7472696275746f72732063616e2063616c6c20746869732060008201527f66756e6374696f6e2e0000000000000000000000000000000000000000000000602082015250565b6000611cf66029836110b6565b9150611d0182611c9a565b604082019050919050565b60006020820190508181036000830152611d2581611ce9565b9050919050565b7f436f6e7472696275746f722068617320616c726561647920617070726f76656460008201527f207468697320726571756573742e000000000000000000000000000000000000602082015250565b6000611d88602e836110b6565b9150611d9382611d2c565b604082019050919050565b60006020820190508181036000830152611db781611d7b565b905091905056fea26469706673582212200a7165fb0380b556df8a68ea2addcdb94054d041528d6d82c8b73cd2fcb7adef64736f6c63430008120033a26469706673582212202fb1af5d4910945198faa6dad23a813d286a8672830011e943f40243a160a43d64736f6c63430008120033",
  "immutableReferences": {},
  "source": "// SPDX-License-Identifier: MIT\r\n\r\npragma solidity ^0.8.18;\r\n\r\ncontract CampaignFactory {\r\n    address[] public deployedCampaigns;\r\n    address public contractDeployer;\r\n\r\n    constructor() {\r\n        contractDeployer = msg.sender;\r\n    }\r\n\r\n    function createCampaign(string memory name, string memory description, string memory url, uint target, uint minimum) public {\r\n        require (msg.sender == contractDeployer, \"Only the contract deployer can create campaigns\");\r\n        address newCampaign = address(new Campaign(name, description, url, target, minimum, msg.sender));\r\n        deployedCampaigns.push(newCampaign);\r\n    }\r\n\r\n    function getDeployedCampaigns() public view returns (address[] memory) {\r\n        return deployedCampaigns;\r\n    }\r\n}\r\n\r\ncontract Campaign {\r\n    struct Request {\r\n        string description;\r\n        uint256 value;\r\n        address payable recipient;\r\n        bool complete;\r\n        uint256 approvalCount;\r\n        mapping(address => bool) approvals;\r\n    }\r\n\r\n    uint numRequests;\r\n    mapping (uint => Request) requests;\r\n    address public manager;\r\n    uint256 public minimumContribution;\r\n    mapping(address => bool) public approvers;\r\n    uint256 public contributors;\r\n    string public name;\r\n    string public description;\r\n    string public url;\r\n    uint public target;\r\n    bool public isClosed; \r\n\r\n    modifier restricted() {\r\n        require(msg.sender == manager, \"Only the manager can call this function.\");\r\n        _;\r\n    }\r\n\r\n    modifier onlyContributor() {\r\n        require(approvers[msg.sender], \"Only contributors can call this function.\");\r\n        _;\r\n    }\r\n\r\n    constructor(string memory _name, string memory _description, string memory _url, uint _target, uint256 minimum, address creator) {\r\n        name = _name;\r\n        description = _description;\r\n        url = _url;\r\n        target = _target;\r\n        manager = creator;\r\n        minimumContribution = minimum;\r\n    }\r\n\r\n    function contribute() public payable {\r\n        require(msg.value > minimumContribution, \"Amount sent is below the minimum contribution required.\");\r\n        require(!isClosed, \"Contribution is closed.\");\r\n        \r\n        if (!approvers[msg.sender]) {\r\n        contributors++;\r\n        approvers[msg.sender] = true;\r\n    }\r\n\r\n        if (address(this).balance >= target) {\r\n            isClosed = true; \r\n        }\r\n    }\r\n\r\n    function createRequest(string memory _description, uint _value, address _recipient) public restricted {\r\n    require(!approvers[_recipient], \"Recipient cannot be a contributor to the campaign.\");\r\n    Request storage r = requests[numRequests++];\r\n    r.description = _description;\r\n    r.value = _value;\r\n    r.recipient = payable(_recipient);\r\n    r.complete = false;\r\n    r.approvalCount = 0;\r\n}\r\n\r\n\r\n    function getRequest(uint index) public view returns (string memory description, uint256 value, address payable recipient, bool complete, uint256 approvalCount) {\r\n        require(index < numRequests, \"Index out of range.\");\r\n        Request storage r = requests[index];\r\n        return (r.description, r.value, r.recipient, r.complete, r.approvalCount);\r\n    }\r\n\r\n    function approveRequest(uint index) public onlyContributor {\r\n        Request storage request = requests[index];\r\n        require(!request.approvals[msg.sender], \"Contributor has already approved this request.\");\r\n\r\n        request.approvals[msg.sender] = true;\r\n        request.approvalCount++;\r\n    }\r\n\r\n    function finalizeRequest(uint index) public restricted {\r\n        Request storage request = requests[index];\r\n\r\n        require(request.approvalCount > (contributors / 2), \"Not enough approvals to finalize request.\");\r\n        require(!request.complete, \"Request has already been completed.\");\r\n\r\n        request.recipient.transfer(request.value);\r\n        request.complete = true;\r\n\r\n        if (request.complete && address(this).balance < target) {\r\n            isClosed = false; \r\n        }\r\n    }\r\n\r\n    function getSummary() public view returns (\r\n        string memory, string memory, string memory, uint, uint256, uint256, uint256, uint256, address\r\n    ) {\r\n        return (\r\n            name,\r\n            description,\r\n            url,\r\n            target,\r\n            minimumContribution,\r\n            address(this).balance,\r\n            numRequests,\r\n            contributors,\r\n            manager\r\n        );\r\n    }\r\n\r\n    function getRequestsCount() public view returns (uint256) {\r\n    return numRequests;\r\n}}",
  "sourcePath": "C:\\Users\\babuv\\Music\\truffle-crowdfund\\contracts\\Campaign.sol",
  "compiler": {
    "name": "solc",
    "version": "0.8.18+commit.87f61d96.Emscripten.clang"
  },
  "schemaVersion": "3.4.13",
  "updatedAt": "2023-05-31T10:51:02.863Z",
  "networkType": "ethereum",
  "devdoc": {
    "kind": "dev",
    "methods": {},
    "version": 1
  },
  "userdoc": {
    "kind": "user",
    "methods": {},
    "version": 1
  }
}